{
  "_format": "hh-sol-artifact-1",
  "contractName": "PetAdoption",
  "sourceName": "contracts/PetAdoption.sol",
  "abi": [
    {
      "inputs": [
        {
          "internalType": "uint256",
          "name": "initialPetIndex",
          "type": "uint256"
        }
      ],
      "stateMutability": "nonpayable",
      "type": "constructor"
    },
    {
      "inputs": [],
      "name": "addPet",
      "outputs": [],
      "stateMutability": "nonpayable",
      "type": "function"
    },
    {
      "inputs": [
        {
          "internalType": "uint256",
          "name": "adpotId",
          "type": "uint256"
        }
      ],
      "name": "adoptPet",
      "outputs": [],
      "stateMutability": "nonpayable",
      "type": "function"
    },
    {
      "inputs": [
        {
          "internalType": "uint256",
          "name": "id",
          "type": "uint256"
        }
      ],
      "name": "getAdoptedpetByIndex",
      "outputs": [
        {
          "internalType": "uint256",
          "name": "",
          "type": "uint256"
        }
      ],
      "stateMutability": "view",
      "type": "function"
    },
    {
      "inputs": [],
      "name": "getAllAdoptedPets",
      "outputs": [
        {
          "internalType": "uint256[]",
          "name": "",
          "type": "uint256[]"
        }
      ],
      "stateMutability": "view",
      "type": "function"
    },
    {
      "inputs": [],
      "name": "getAllAdoptedPetsByOwner",
      "outputs": [
        {
          "internalType": "uint256[]",
          "name": "",
          "type": "uint256[]"
        }
      ],
      "stateMutability": "view",
      "type": "function"
    },
    {
      "inputs": [],
      "name": "getOwner",
      "outputs": [
        {
          "internalType": "address",
          "name": "",
          "type": "address"
        }
      ],
      "stateMutability": "view",
      "type": "function"
    },
    {
      "inputs": [
        {
          "internalType": "uint256",
          "name": "id",
          "type": "uint256"
        }
      ],
      "name": "getPetOwner",
      "outputs": [
        {
          "internalType": "address",
          "name": "",
          "type": "address"
        }
      ],
      "stateMutability": "view",
      "type": "function"
    },
    {
      "inputs": [],
      "name": "petIndex",
      "outputs": [
        {
          "internalType": "uint256",
          "name": "",
          "type": "uint256"
        }
      ],
      "stateMutability": "view",
      "type": "function"
    }
  ],
  "bytecode": "0x6080604052600060015534801561001557600080fd5b506040516104f83803806104f88339810160408190526100349161004e565b600080546001600160a01b03191633179055600155610067565b60006020828403121561006057600080fd5b5051919050565b610482806100766000396000f3fe608060405234801561001057600080fd5b50600436106100885760003560e01c8063880eb5e51161005b578063880eb5e5146100db578063893d20e8146100ee578063dc1cea3a14610113578063f2d5a0551461013c57600080fd5b806319b815771461008d57806330671a09146100a25780633ff4a0eb146100be57806346f43d43146100d3575b600080fd5b6100a061009b3660046103b2565b610144565b005b6100ab60015481565b6040519081526020015b60405180910390f35b6100c6610263565b6040516100b591906103cb565b6100a06102bb565b6100ab6100e93660046103b2565b61032c565b6000546001600160a01b03165b6040516001600160a01b0390911681526020016100b5565b6100fb6101213660046103b2565b6000908152600360205260409020546001600160a01b031690565b6100c6610353565b60015481106101935760405162461bcd60e51b815260206004820152601660248201527514195d081a5b99195e081bdd5d081bd988189bdd5b9960521b60448201526064015b60405180910390fd5b6000818152600360205260409020546001600160a01b0316156101f15760405162461bcd60e51b815260206004820152601660248201527514195d081a5cc8185b1c9958591e4818591bdc1d195960521b604482015260640161018a565b600081815260036020908152604080832080546001600160a01b0319163390811790915583526004825282208054600181810183559184529183209091018390556002805491820181559091527f405787fa12a823e0f2b7631cc41b3ba8828b3321ca811111fa75cd3aa3bb5ace0155565b606060028054806020026020016040519081016040528092919081815260200182805480156102b157602002820191906000526020600020905b81548152602001906001019080831161029d575b5050505050905090565b6000546001600160a01b031633146103155760405162461bcd60e51b815260206004820181905260248201527f4f6e6c79206f776e65722063616e2075736520746869732066756e6374696f6e604482015260640161018a565b600180549060006103258361040f565b9190505550565b60006002828154811061034157610341610436565b90600052602060002001549050919050565b336000908152600460209081526040918290208054835181840281018401909452808452606093928301828280156102b1576020028201919060005260206000209081548152602001906001019080831161029d575050505050905090565b6000602082840312156103c457600080fd5b5035919050565b6020808252825182820181905260009190848201906040850190845b81811015610403578351835292840192918401916001016103e7565b50909695505050505050565b60006001820161042f57634e487b7160e01b600052601160045260246000fd5b5060010190565b634e487b7160e01b600052603260045260246000fdfea26469706673582212205791962960237cbfc73ff8706fcbda7d6ca4631d2476c7bc581c97e86285d19464736f6c63430008130033",
  "linkReferences": {},
  "deployedLinkReferences": {}
}