{
  "_format": "hh-sol-artifact-1",
  "contractName": "PetAdoption",
  "sourceName": "contracts/PetAdoption.sol",
  "abi": [
    {
      "inputs": [
        {
          "internalType": "uint256",
          "name": "initialPetIndex",
          "type": "uint256"
        }
      ],
      "stateMutability": "nonpayable",
      "type": "constructor"
    },
    {
      "inputs": [],
      "name": "addPet",
      "outputs": [],
      "stateMutability": "nonpayable",
      "type": "function"
    },
    {
      "inputs": [
        {
          "internalType": "uint256",
          "name": "adpotId",
          "type": "uint256"
        }
      ],
      "name": "adoptPet",
      "outputs": [],
      "stateMutability": "nonpayable",
      "type": "function"
    },
    {
      "inputs": [
        {
          "internalType": "uint256",
          "name": "id",
          "type": "uint256"
        }
      ],
      "name": "getAdoptedpetByIndex",
      "outputs": [
        {
          "internalType": "uint256",
          "name": "",
          "type": "uint256"
        }
      ],
      "stateMutability": "view",
      "type": "function"
    },
    {
      "inputs": [],
      "name": "getAllAdoptedPets",
      "outputs": [
        {
          "internalType": "uint256[]",
          "name": "",
          "type": "uint256[]"
        }
      ],
      "stateMutability": "view",
      "type": "function"
    },
    {
      "inputs": [],
      "name": "getAllAdoptedPetsByOwner",
      "outputs": [
        {
          "internalType": "uint256[]",
          "name": "",
          "type": "uint256[]"
        }
      ],
      "stateMutability": "view",
      "type": "function"
    },
    {
      "inputs": [],
      "name": "getOwner",
      "outputs": [
        {
          "internalType": "address",
          "name": "",
          "type": "address"
        }
      ],
      "stateMutability": "view",
      "type": "function"
    },
    {
      "inputs": [
        {
          "internalType": "uint256",
          "name": "id",
          "type": "uint256"
        }
      ],
      "name": "getPetOwner",
      "outputs": [
        {
          "internalType": "address",
          "name": "",
          "type": "address"
        }
      ],
      "stateMutability": "view",
      "type": "function"
    },
    {
      "inputs": [],
      "name": "petIndex",
      "outputs": [
        {
          "internalType": "uint256",
          "name": "",
          "type": "uint256"
        }
      ],
      "stateMutability": "view",
      "type": "function"
    }
  ],
  "bytecode": "0x6080604052600060015534801561001557600080fd5b50604051610a78380380610a78833981810160405281019061003791906100bf565b336000806101000a81548173ffffffffffffffffffffffffffffffffffffffff021916908373ffffffffffffffffffffffffffffffffffffffff16021790555080600181905550506100ec565b600080fd5b6000819050919050565b61009c81610089565b81146100a757600080fd5b50565b6000815190506100b981610093565b92915050565b6000602082840312156100d5576100d4610084565b5b60006100e3848285016100aa565b91505092915050565b61097d806100fb6000396000f3fe608060405234801561001057600080fd5b50600436106100885760003560e01c8063880eb5e51161005b578063880eb5e5146100ef578063893d20e81461011f578063dc1cea3a1461013d578063f2d5a0551461016d57610088565b806319b815771461008d57806330671a09146100a95780633ff4a0eb146100c757806346f43d43146100e5575b600080fd5b6100a760048036038101906100a291906105b9565b61018b565b005b6100b1610355565b6040516100be91906105f5565b60405180910390f35b6100cf61035b565b6040516100dc91906106ce565b60405180910390f35b6100ed6103b3565b005b610109600480360381019061010491906105b9565b61045b565b60405161011691906105f5565b60405180910390f35b610127610483565b6040516101349190610731565b60405180910390f35b610157600480360381019061015291906105b9565b6104ac565b6040516101649190610731565b60405180910390f35b6101756104e9565b60405161018291906106ce565b60405180910390f35b60015481106101cf576040517f08c379a00000000000000000000000000000000000000000000000000000000081526004016101c6906107a9565b60405180910390fd5b600073ffffffffffffffffffffffffffffffffffffffff166003600083815260200190815260200160002060009054906101000a900473ffffffffffffffffffffffffffffffffffffffff1673ffffffffffffffffffffffffffffffffffffffff1614610271576040517f08c379a000000000000000000000000000000000000000000000000000000000815260040161026890610815565b60405180910390fd5b336003600083815260200190815260200160002060006101000a81548173ffffffffffffffffffffffffffffffffffffffff021916908373ffffffffffffffffffffffffffffffffffffffff160217905550600460003373ffffffffffffffffffffffffffffffffffffffff1673ffffffffffffffffffffffffffffffffffffffff168152602001908152602001600020819080600181540180825580915050600190039060005260206000200160009091909190915055600281908060018154018082558091505060019003906000526020600020016000909190919091505550565b60015481565b606060028054806020026020016040519081016040528092919081815260200182805480156103a957602002820191906000526020600020905b815481526020019060010190808311610395575b5050505050905090565b60008054906101000a900473ffffffffffffffffffffffffffffffffffffffff1673ffffffffffffffffffffffffffffffffffffffff163373ffffffffffffffffffffffffffffffffffffffff1614610441576040517f08c379a000000000000000000000000000000000000000000000000000000000815260040161043890610881565b60405180910390fd5b60016000815480929190610454906108d0565b9190505550565b60006002828154811061047157610470610918565b5b90600052602060002001549050919050565b60008060009054906101000a900473ffffffffffffffffffffffffffffffffffffffff16905090565b60006003600083815260200190815260200160002060009054906101000a900473ffffffffffffffffffffffffffffffffffffffff169050919050565b6060600460003373ffffffffffffffffffffffffffffffffffffffff1673ffffffffffffffffffffffffffffffffffffffff16815260200190815260200160002080548060200260200160405190810160405280929190818152602001828054801561057457602002820191906000526020600020905b815481526020019060010190808311610560575b5050505050905090565b600080fd5b6000819050919050565b61059681610583565b81146105a157600080fd5b50565b6000813590506105b38161058d565b92915050565b6000602082840312156105cf576105ce61057e565b5b60006105dd848285016105a4565b91505092915050565b6105ef81610583565b82525050565b600060208201905061060a60008301846105e6565b92915050565b600081519050919050565b600082825260208201905092915050565b6000819050602082019050919050565b61064581610583565b82525050565b6000610657838361063c565b60208301905092915050565b6000602082019050919050565b600061067b82610610565b610685818561061b565b93506106908361062c565b8060005b838110156106c15781516106a8888261064b565b97506106b383610663565b925050600181019050610694565b5085935050505092915050565b600060208201905081810360008301526106e88184610670565b905092915050565b600073ffffffffffffffffffffffffffffffffffffffff82169050919050565b600061071b826106f0565b9050919050565b61072b81610710565b82525050565b60006020820190506107466000830184610722565b92915050565b600082825260208201905092915050565b7f50657420696e646578206f7574206f6620626f756e6400000000000000000000600082015250565b600061079360168361074c565b915061079e8261075d565b602082019050919050565b600060208201905081810360008301526107c281610786565b9050919050565b7f50657420697320616c72656164792061646f7074656400000000000000000000600082015250565b60006107ff60168361074c565b915061080a826107c9565b602082019050919050565b6000602082019050818103600083015261082e816107f2565b9050919050565b7f4f6e6c79206f776e65722063616e2075736520746869732066756e6374696f6e600082015250565b600061086b60208361074c565b915061087682610835565b602082019050919050565b6000602082019050818103600083015261089a8161085e565b9050919050565b7f4e487b7100000000000000000000000000000000000000000000000000000000600052601160045260246000fd5b60006108db82610583565b91507fffffffffffffffffffffffffffffffffffffffffffffffffffffffffffffffff820361090d5761090c6108a1565b5b600182019050919050565b7f4e487b7100000000000000000000000000000000000000000000000000000000600052603260045260246000fdfea2646970667358221220f5946f6ab143a334f93d34be50530c42127c26280448098cafdfcdd46f6e59b464736f6c63430008130033",
  "linkReferences": {},
  "deployedLinkReferences": {}
}